txhash = "0xb538eabb6cea1fc3af58f1474c2b8f1adbf36a209ec8dc5534618b1f2d860c8e"

version = "1.1.0"
network = "ropsten"
address = 'bc1qzse3hm25w3nx70e8nlss6nlfusj7wd4q3m8gax'

transaction_data = {
    'txid': '6cc808a28150482f783fdff7c99a6245a59437f55bb85575aa31c99ab2b0898b', 
    'hash': '6cc808a28150482f783fdff7c99a6245a59437f55bb85575aa31c99ab2b0898b', 
    'version': 2, 
    'size': 222, 
    'vsize': 222, 
    'weight': 888, 
    'locktime': 1865235, 
    'vin': [{
        'txid': '3c1324004cf55aff8d4153bda4b6059a82f6fdc4aa43b5b2d26fa3a97eed0e4f', 
        'vout': 0, 
        'scriptSig': {
            'asm': '3044022052d0875f4412e26e2db1470126f5ccc537e8998bcb5b203e6346ca9b1bf847d2022039182a20dd4c2a30b4155d4b72426aaa6c6cf97c02928c7c06fd4cff89251043[ALL] 0299b7faf388c5d8e6ba1654476083098e896bd2ec384aba20484b8a82d01496b6', 
            'hex': '473044022052d0875f4412e26e2db1470126f5ccc537e8998bcb5b203e6346ca9b1bf847d2022039182a20dd4c2a30b4155d4b72426aaa6c6cf97c02928c7c06fd4cff8925104301210299b7faf388c5d8e6ba1654476083098e896bd2ec384aba20484b8a82d01496b6'
            }, 
        'sequence': 4294967293
        }], 
    'vout': [{
        'value': 0.01, 
        'n': 0, 
        'scriptPubKey': {
            'asm': '0 89c82f97d743d939d5c9f4068e3a53dfd09ec5fc', 
            'hex': '001489c82f97d743d939d5c9f4068e3a53dfd09ec5fc', 
            'reqSigs': 1, 
            'type': 'witness_v0_keyhash', 
            'addresses': ['tb1q38yzl97hg0vnn4wf7srguwjnmlgfa30uq3nrwt']}
            }, {
        'value': 1.989997, 
        'n': 1, 
        'scriptPubKey': {
            'asm': 'OP_DUP OP_HASH160 4c8bda34fa519008db22b421711ee6b9fb52b559 OP_EQUALVERIFY OP_CHECKSIG', 
            'hex': '76a9144c8bda34fa519008db22b421711ee6b9fb52b55988ac', 
            'reqSigs': 1, 
            'type': 'pubkeyhash', 
            'addresses': ['mnVhBkEWwvP4MMeTBZoZa3GGTVsNm135eG']}
            }], 
    'hex': '02000000014f0eed7ea9a36fd2b2b543aac4fdf6829a05b6a4bd53418dff5af54c0024133c000000006a473044022052d0875f4412e26e2db1470126f5ccc537e8998bcb5b203e6346ca9b1bf847d2022039182a20dd4c2a30b4155d4b72426aaa6c6cf97c02928c7c06fd4cff8925104301210299b7faf388c5d8e6ba1654476083098e896bd2ec384aba20484b8a82d01496b6fdffffff0240420f000000000016001489c82f97d743d939d5c9f4068e3a53dfd09ec5fc947edc0b000000001976a9144c8bda34fa519008db22b421711ee6b9fb52b55988ac13761c00', 
    'blockhash': '0000000005629b78403c6b58bf094b1987dd9e62a9349f71ff4882c05f0ad517', 
    'confirmations': 24854, 
    'time': 1603872469, 
    'blocktime': 1603872469
    }

